:100000000C94AA000C94C9000C94C9000C94C9006B
:100010000C94C9000C94C9000C94C9000C94C9003C
:100020000C94C9000C94C9000C94AC0C0C94EB0C0F
:100030000C94C9000C94C9000C94C9000C94C9001C
:100040000C94C9000C94C9000C94C9000C94C9000C
:100050000C94C9000C94C9000C94C9000C94920330
:100060000C94C9000C94C9000C94C9000C94C900EC
:100070000C94C9000C94C9000C94C9000C94C900DC
:100080000C94C9000C94C9000C94C9000C94C900CC
:100090000C94C9000C94C900000100003C0112003E
:1000A00002000005012200220000270115002100A6
:1000B000001701090003000001010401030904EB1A
:1000C000001402030904C90020200359006F0075C1
:1000D00000720020005500530042002000440065DB
:1000E0000076006900630065000000140359006F8A
:1000F000007500720020004E0061006D0065000078
:10010000000403090409022200010100C0320904AD
:100110000000010300000009211101000122150067
:10012000070583032000010631FF0974A1537508F8
:10013000150026FF00952009758102C012010002FA
:1001400000000020C0167904000101020001000037
:1001500001C1260011241FBECFEFD0E2DEBFCDBF0C
:1001600011E0A0E0B1E0E6E0F3E200E00BBF02C086
:1001700007900D92A638B107D9F721E0A6E8B1E0C3
:1001800001C01D92A139B207E1F70E944E0E0C94F6
:1001900081110C940000AF92BF92CF92DF92EF9248
:1001A000FF920F931F93CF93DF93CDB7DEB7609786
:1001B0000FB6F894DEBF0FBECDBF29833A834B83C1
:1001C0005C836D837E838F839887A986BA86CB866E
:1001D000DC86ED86FE860F87188B2B813C816D8136
:1001E0007E81AF81B8858B859C854D855E85EF8549
:1001F000F889EA17FB07C0F0AE17BF07B8F046173B
:10020000570790F06417750788F08217930760F01E
:100210002817390758F081E049815A8129853A85A4
:100220002417350720F002C081E001C080E060960D
:100230000FB6F894DEBF0FBECDBFDF91CF911F91F7
:100240000F91FF90EF90DF90CF90BF90AF90089507
:100250000F931F93CF93DF93CDB7DEB760970FB6A1
:10026000F894DEBF0FBECDBF29873A874B875C87E6
:100270006D877E878F87988B49855A852B853C852E
:100280006D857E858F859889040F151F00384EE394
:100290001407B0F0A9014F5F5F4F00581E43483E5E
:1002A000E3E05E0780F0485E53409B012F5F3F4FC5
:1002B0002031EEE03E0730F06F507E40019603C0E3
:1002C000A90101C0B9011A8309835C834B837E8332
:1002D0006D8398878F83202F3A815C817E819885FA
:1002E00060960FB6F894DEBF0FBECDBFDF91CF9101
:1002F0001F910F9108950F931F93CF93DF93CDB765
:10030000DEB760970FB6F894DEBF0FBECDBFE82F03
:10031000822F2E2FE9879A87962F6B877C87642FF1
:100320004D875E878F87388B00E010E03A85492F34
:10033000572F7E8598890E94280160960FB6F89401
:10034000DEBF0FBECDBFDF91CF911F910F910895FA
:10035000AF92BF92CF92DF92EF92FF920F931F93D3
:10036000CF93DF93CDB7DEB7A8970FB6F894DEBF73
:100370000FBECDBFA9A2BAA2CBA2DCA2EDA2FEA263
:100380000FA318A700E010E00E942801298B3A8BE8
:100390004B8B5C8B6D8B7E8B8F8B988F29A13AA1B9
:1003A0004BA15CA16DA17EA18FA198A50E942801FF
:1003B00029873A874B875C876D877E878F87988BE5
:1003C0002F8538898F89988D280F391F4D855E8537
:1003D0008D899E89480F591F6B857C858B899C89E7
:1003E000680F791FE985FA8589899A898E0F9F1F81
:1003F0000E947B01A8960FB6F894DEBF0FBECDBF5A
:10040000DF91CF911F910F91FF90EF90DF90CF90F0
:10041000BF90AF9008956F927F928F929F92AF920C
:10042000BF92CF92DF92EF92FF920F931F93CF93E1
:10043000DF93CDB7DEB7A0970FB6F894DEBF0FBE3F
:10044000CDBFE22F298BF32F3A8BA42F4B8BB52FE7
:100450005C8B962E6D8B872E7E8B782E8F8B692EE4
:10046000988F2A2DA98E3B2DBA8E4C2DCB8E5D2DCB
:10047000DC8E6E2DED8E7F2DFE8E802F0F8F912FB7
:1004800018A35F016D01E92CF82C072D162D0E9491
:10049000CB00882359F020E030E040E050E060E0FD
:1004A00070E080E090E00E947B0163C029893A8976
:1004B0004B895C896D897E898F89988DE98CFA8C4E
:1004C0000B8D1C8DAD8DBE8DAF8CB8A02E153F054C
:1004D00030F54115510519F1FA01319733953097EF
:1004E00079F46B01E1E0CE1AD108FA01E951FC4F31
:1004F000C114D10421F40197615F714F01C0B601AD
:10050000AF01E4CF6115710599F0FB0131974851B6
:100510005C4F309719F40197E05FF14FBF0140172E
:10052000510780F305C0009731F00197605F714F6C
:100530006A177B07C0F3F901EE19FF092E2FFA871E
:10054000E987FA01E01BF10B4E2FFC87EB87FB01DB
:10055000EA1BFB0B6E2FFE87ED878A199B09988B90
:100560008F8700E010E03A855C857E8598890E943F
:10057000280129833A834B835C836D837E838F8339
:10058000988729813A814B815C816D817E818F8141
:100590009885A0960FB6F894DEBF0FBECDBFDF9151
:1005A000CF911F910F91FF90EF90DF90CF90BF9070
:1005B000AF909F908F907F906F9008956F927F92F1
:1005C0008F929F92AF92BF92CF92DF92EF92FF9263
:1005D0000F931F93CF93DF93CDB7DEB768970FB616
:1005E000F894DEBF0FBECDBFE22F2987F32F3A87E5
:1005F000A42F4B87B52F5C87962E6D87872E7E871D
:10060000782E8F87692E988B2A2DA98A3B2DBA8A3E
:100610004C2DCB8A5D2DDC8A6E2DED8A7F2DFE8AD6
:10062000802F0F8B912F188F5F016D01E92CF82C13
:10063000072D162D0E94CB00882349F029893A897D
:100640004B895C896D897E898F89988D10C0A988B6
:10065000BA88CB88DC88ED88FE880F89188D2985BB
:100660003A854B855C856D857E858F8598890E944E
:100670000B0229833A834B835C836D837E838F8354
:10068000988729813A814B815C816D817E818F8140
:10069000988568960FB6F894DEBF0FBECDBFDF9188
:1006A000CF911F910F91FF90EF90DF90CF90BF906F
:1006B000AF909F908F907F906F9008950F931F93AE
:1006C000CF93DF93CDB7DEB728970FB6F894DEBF90
:1006D0000FBECDBF2B834D835E836F8378873F939F
:1006E0002B812F932E812F932D812F9328852F934C
:1006F0002F812F9325E131E03F932F939F938F9389
:100700000E94B10E0FB6F894DEBF0FBECDBF289683
:100710000FB6F894DEBF0FBECDBFDF91CF911F9112
:100720000F9108951F920F920FB60F9211240BB6DE
:100730000F920F931F932F933F934F935F936F935A
:100740007F938F939F93AF93BF93EF93FF9300E0BB
:1007500011E02091890130918A0140918B015091E3
:100760008C0160918D0170918E0180918F0190912B
:1007700090010E942801E9E8F1E02083318342835F
:1007800053836483758386839783FF91EF91BF9131
:10079000AF919F918F917F916F915F914F913F9119
:1007A0002F911F910F910F900BBE0F900FBE0F90C6
:1007B0001F90189514BC15BC16BC81E080936E0088
:1007C00010928A011092890110928C0110928B0173
:1007D00010928E0110928D011092900110928F0153
:1007E00085BD089514BC15BC16BC81E080936E00D5
:1007F00010928A011092890110928C0110928B0143
:1008000010928E0110928D011092900110928F0122
:100810000895FC018091890190918A0191838083E0
:1008200080918B0190918C019383828380918D01C3
:1008300090918E019583848380918F019091900196
:100840009783868308950F931F93CF93DF93EC01D3
:100850008B010E942409682FCE010E945C0A0E942D
:100860004109682FCE010E945C0AF801808188232B
:1008700041F0B801CE01DF91CF911F910F910C94FF
:100880000A0BDF91CF911F910F91089508955F9208
:100890006F927F928F929F92AF92BF92CF92DF9290
:1008A000EF92FF920F931F93CF93DF93CDB7DEB7F5
:1008B00064970FB6F894DEBF0FBECDBF762E642EC0
:1008C0008C010D581F4FF8011082512C6C01FCE572
:1008D000CF0ED11C5C012EE0A20EB11C82E2882E4C
:1008E00081E0982ECE0101967C01C6010E94C308CA
:1008F000811127C0C6010E949708F801808158160F
:10090000A1F3462D672DC5010E942F0BF801208110
:10091000822F992787FD90959F932F939F928F9277
:10092000FF92EF920E94B10EB701C5010E940A0B1F
:10093000F80150800F900F900F900F900F900F9034
:10094000D4CF80E064960FB6F894DEBF0FBECDBF63
:10095000DF91CF911F910F91FF90EF90DF90CF909B
:10096000BF90AF909F908F907F906F905F90089511
:10097000DF92EF92FF920F931F93CF93DF93EC01DF
:10098000D62E7C0184E7E80EF11CF70180818617E2
:10099000E1F18E01025F1F4FF1E06F1789F082E0F5
:1009A00068132CC06AE571E0C8010E94230429E79E
:1009B00031E043E060E0CE010E94470460E01AC0ED
:1009C00066E271E0C8010E94230443E060E0C801D0
:1009D0000E942F0B8E01045A1F4FC8010E94C308AA
:1009E000811104C0C8010E949708F7CFC8010E9476
:1009F000690862E0CE010E94B80405C061E871E0B8
:100A0000C8010E942304F701D082DF91CF911F918A
:100A10000F91FF90EF90DF900895BF92CF92DF92F9
:100A2000EF92FF920F931F93CF93DF93EC0180E43B
:100A30000E94020820E04FE250E060E370E081E3B2
:100A400090E00E94390B288339834A835B836C834F
:100A50007D838E830E94F60B26E043E250E064E241
:100A600070E085E290E00E94390B2F833887498738
:100A70005A876B877C878D870E94CF0B2F813885A3
:100A800049855A856B857C858D850E94820BFE0188
:100A9000EB57FF4F81E080838E010B581F4F20E002
:100AA00030E040E050E060E070E080E090E00E94E4
:100AB0007B01F801208331834283538364837583F0
:100AC00086839783085F1F4F20E030E040E050E0CE
:100AD00060E070E080E090E00E947B01F8012083FC
:100AE00031834283538364837583868397833996E6
:100AF0008AE090E091838083329682E390E0918354
:100B000080837497108225E049E250E06AE270E049
:100B10008BE290E00E94390B2E873F87488B598BE0
:100B20006A8B7B8B8C8B26E049E250E06AE270E0B6
:100B30008BE290E00E94390B2D8B3E8B4F8B588FB0
:100B4000698F7A8F8B8F27E049E250E06AE270E08C
:100B50008BE290E00E94390B2C8F3D8F4E8F5F8F80
:100B600068A379A38AA3E12CF12C97E0B92EBE9C4F
:100B70006001BF9CD00C1124CC0EDD1E86010D5DE2
:100B80001F4F2E2D46E250E067E270E088E290E0D1
:100B90000E94390BF60123A3F8013183428353836A
:100BA000648375838683FFEFEF1AFF0A88E0E816F7
:100BB000F104E9F6FE01E55AFF4F81E080838E01E2
:100BC000025F1F4FC8010E945F0A40E061E081E0C0
:100BD0000E940009682FC8010E945C0A025B1F4F37
:100BE000C8010E9429087E01EAE6EE0EF11C21E010
:100BF00049E250E06AE270E08BE290E00E94390B3B
:100C0000F701208331834283538364837583868312
:100C10000E945B0B22E049E250E06AE270E08BE266
:100C200090E00E94390BF801208331834283538383
:100C3000648375838683095F1F4F23E049E250E098
:100C40006AE270E08BE290E00E94390BF8012083A9
:100C500031834283538364837583868361E0CE014D
:100C6000DF91CF911F910F91FF90EF90DF90CF9088
:100C7000BF900C94B804EF92FF920F931F93CF9301
:100C8000DF937C010AE010E0C0E0D0E0F70186814C
:100C90000E940608C80FD91F01501109011511053E
:100CA000A9F7CE016AE070E00E94890ECB01DF91C6
:100CB000CF911F910F91FF90EF9008958F929F9287
:100CC000AF92BF92CF92DF92EF92FF920F931F935A
:100CD000CF93DF93CDB7DEB728970FB6F894DEBF7A
:100CE0000FBECDBF4C01FC01EB57FF4F81E080836D
:100CF000F40127813085418552856385748585851A
:100D00000E94820BF401EA57FF4F4081518120E09D
:100D100030E060E070E080E090E00E947B01298399
:100D20003A834B835C836D837E838F839887F5E75B
:100D30008F0E911C59016A017B018C012091890160
:100D400030918A0140918B0150918C0160918D010D
:100D500070918E0180918F01909190010E94A80165
:100D6000F4012083318342835383648375838683B4
:100D7000978328960FB6F894DEBF0FBECDBFDF91E4
:100D8000CF911F910F91FF90EF90DF90CF90BF9088
:100D9000AF909F908F9008958F929F92AF92BF9245
:100DA000CF92DF92EF92FF920F931F93CF93DF9337
:100DB000CDB7DEB728970FB6F894DEBF0FBECDBF14
:100DC0004C0120E030E040E050E064E670E080E07C
:100DD00090E00E947B0129833A834B835C836D837F
:100DE0007E838F839887EDE78E0E911C59016A01EF
:100DF0007B018C012091890130918A0140918B0106
:100E000050918C0160918D0170918E0180918F01C4
:100E1000909190010E94A801F401208331834283C4
:100E20005383648375838683978328960FB6F894DB
:100E3000DEBF0FBECDBFDF91CF911F910F91FF900D
:100E4000EF90DF90CF90BF90AF909F908F900895DC
:100E5000CF93DF93EC01FC01EB57FF4F10822F8102
:100E6000388549855A856B857C858D850E945B0B0D
:100E7000CE01DF91CF910C94CC066F927F928F922E
:100E80009F92AF92BF92CF92DF92EF92FF920F9319
:100E90001F93CF93DF93CDB7DEB768970FB6F89463
:100EA000DEBF0FBECDBF3C01845A9F4F0E94970802
:100EB000F301EC58FF4F6081C3010E94B804F301B5
:100EC000EB57FF4F8081882309F457C0430185E722
:100ED000880E911CF401A080B180C280D380E48090
:100EE000F580068117812091890130918A01409116
:100EF0008B0150918C0160918D0170918E018091D8
:100F00008F01909190010E94CB00882321F0C301B2
:100F10000E94280762C0F401A080B180C280D38003
:100F2000E480F580068117812091890130918A0142
:100F300040918B0150918C0160918D0170918E01D7
:100F400080918F01909190010E94DE0289019A01A7
:100F5000AB01BC01CE0101960E945E03FEE06F0E64
:100F6000711C41E060E0C3010E942F0BBE016F5F66
:100F70007F4FC3010E940A0B30C0F301E358FF4FBB
:100F8000A080B180C280D380E480F5800681178183
:100F90002091890130918A0140918B0150918C01FF
:100FA00060918D0170918E0180918F0190919001DF
:100FB0000E94CB00882389F0C3010E94CC06C301A4
:100FC0000E943B06F301E857FF4F208131818217D1
:100FD000930718F4C3010E945E0668960FB6F89452
:100FE000DEBF0FBECDBFDF91CF911F910F91FF905C
:100FF000EF90DF90CF90BF90AF909F908F907F90B9
:101000006F900895807C80930001089596E89093F6
:101010007A00982F9072906890937B008F719091D6
:101020000001892B80937C0086EC80937A0080916C
:101030007A0086FDFCCF809178002091790090E0C5
:10104000922B0895883010F40C94060880E090E00C
:101050000895CF93DF93EC012E853F854889598908
:101060006A897B898C890E94F60B2E853F85488989
:1010700059896A897B898C890E945B0B2881398117
:101080004A815B816C817D818E810E94F60B288173
:1010900039814A815B816C817D818E810E945B0BED
:1010A0002F81388549855A856B857C858D850E9481
:1010B000F60B2F81388549855A856B857C858D8512
:1010C0000E945B0B1D8A1F8A8FEF8E8BDF91CF9161
:1010D0000895FC01158A178A8FEF868B08951F9358
:1010E000CF93DF93EC01288139814A815B816C8148
:1010F0007D818E810E94AA0B182F2F81388549850A
:101100005A856B857C858D850E94AA0B9D89990FD8
:10111000990F982BE12FEE0FE92BED8BEF70F0E09C
:10112000EF5FFE4F8081DF91CF911F9108951F9354
:10113000CF93DF93EC011F890E946F08810F8F8B83
:101140001E89110F1E8B2E853F85488959896A8912
:101150007B898C890E94AA0B812B8E8BDF91CF918A
:101160001F910895FC01868981700895FC0186898C
:1011700080958170089521E0FC0186898E3F09F0F9
:1011800020E0822F089521E0FC018689813009F05A
:1011900020E0822F0895FC01208181E090E0062E5E
:1011A00001C0880F0A94EAF7442311F0822B02C091
:1011B00080958223808308950F931F93CF93DF93AD
:1011C0001F92CDB7DEB7062F142F90E29983482FD8
:1011D00064E0CE0101960E94CB08402F63E0CE016F
:1011E00001960E94CB08412F62E0CE0101960E9439
:1011F000CB0889810F90DF91CF911F910F910895B6
:101200000F931F93CF93DF931F92CDB7DEB7062FB7
:10121000142F98E09983482F62E0CE0101960E9436
:10122000CB08402F61E0CE0101960E94CB08412FF0
:1012300060E0CE0101960E94CB0889810F90DF917A
:10124000CF911F910F91089581E008951F93CF933F
:10125000DF931F92CDB7DEB7162F94E09983482F06
:1012600061E0CE0101960E94CB08412F60E0CE01E3
:1012700001960E94CB0889810F90DF91CF911F9139
:10128000089582E0089580580895FC0120813181FD
:1012900042815381611105C06481758186810C94FE
:1012A000820B6481758186810C945B0B1F93CF93B5
:1012B000DF93EC01162F2E853F85488959896A896D
:1012C0007B898C890E945B0B612FCE010E944509AE
:1012D0002F81388549855A856B857C858D850E944F
:1012E000820B2E853F85488959896A897B898C893B
:1012F0000E94820B8FED9EE20197F1F700C0000083
:10130000DF91CF911F9108950F93CF93DF93CDB7C6
:10131000DEB727970FB6F894DEBF0FBECDBF298387
:101320003A834B835C836D837E838F83002359F0E4
:1013300027960FB6F894DEBF0FBECDBFDF91CF91D9
:101340000F910C945B0B29813A814B815C816D81FB
:101350007E818F8127960FB6F894DEBF0FBECDBF7A
:10136000DF91CF910F910C94820BCF92DF92EF928D
:10137000FF920F931F93CF93DF938C01C42EC0E095
:10138000D0E0E62EF12C87E0D82EC7010C2E02C04B
:10139000959587950A94E2F7DC9ED001DD9EB00D0D
:1013A0001124A00FB11FFD01759655962C91318126
:1013B000428153816481758180FF04C086810E94CF
:1013C0005B0B03C086810E94820B2196C830D10539
:1013D000E1F66C2DC801DF91CF911F910F91FF9025
:1013E000EF90DF90CF900C945609CF92DF92EF925E
:1013F000FF920F931F93CF93DF938C01C42EC4E011
:10140000D0E0E62EF12C97E0D92ECE01049797017B
:1014100002C0359527958A95E2F7C901DC9ED00177
:10142000DD9EB00D1124A00FB11FFD0175965596DC
:101430002C913181428153816481758180FF04C088
:1014400086810E945B0B03C086810E94820B2196DD
:10145000C830D105D1F66C2DC801DF91CF911F9115
:101460000F91FF90EF90DF90CF900C9456090F935F
:101470001F93CF93DF93EC01162F042FFC01E35B46
:10148000FF4F808181110EC062956F70CE010E9466
:10149000F509402F612FCE01DF91CF911F910F9160
:1014A0000C94F509CE01DF91CF911F910F910C940F
:1014B000B50941E00C94370A40E00C94370ADF92FA
:1014C000EF92FF920F931F93CF93DF93EC0128814C
:1014D00039814A815B816C817D818E810E94CF0B35
:1014E0002F81388549855A856B857C858D850E943D
:1014F000CF0B2E853F85488959896A897B898C89DC
:101500000E94CF0B00E010E07E012DE4E20EF11C02
:1015100027E0D22EF7018081811103C0043011052C
:101520009CF0D09ED001D19EB00D1124AC0FBD1FF8
:10153000FD01759655962C913181428153816481CC
:10154000758186810E94CF0B0F5F1F4F08301105F8
:1015500009F7FFEF29EF80E0F15020408040E1F7EC
:1015600000C0000040E060E081E00E94DC08182F2D
:1015700040E0682FCE010E94B509EFE1FEE431970B
:10158000F1F700C0000040E0612FCE010E94B509D4
:101590008FE99FE00197F1F700C0000040E0612F64
:1015A000CE010E94B509EFE9FFE03197F1F700C0E5
:1015B000000040E060E0F70180810E94DC0840E02C
:1015C000682FCE010E94B50940E061E0F7018081FB
:1015D0000E94DC08682FCE010E945C0A41E061E0B5
:1015E00081E00E940009682FCE010E945C0A61E040
:1015F000CE010E945C0A60E081E00E942609682F0B
:10160000CE01DF91CF911F910F91FF90EF90DF906E
:101610000C945C0AFF920F931F93CF93DF93EC011E
:101620008B01F12CF80161918F01662391F06A30F2
:1016300061F4F394EF2DE370F0E0EF5EFE4F608114
:101640006058CE010E945C0AEDCFCE010E94590A7B
:10165000E9CFDF91CF911F910F91FF9008956058CE
:101660004370E42FF0E0EF5EFE4F2081620F0C9498
:101670005C0ACF93DF93CDB7DEB727970FB6F89408
:10168000DEBF0FBECDBFE22F89839A836B837C833D
:101690004D835E839C01962F572F642F7E81492FA7
:1016A0008E2F90E027960FB6F894DEBF0FBECDBF09
:1016B000DF91CF910895CF93DF93CDB7DEB7279712
:1016C0000FB6F894DEBF0FBECDBF29833A834B839C
:1016D0005C836D837E838F83E981FA81208181E041
:1016E00090E00F8002C0880F991F0A94E2F7282B20
:1016F000208327960FB6F894DEBF0FBECDBFDF91D3
:10170000CF910895CF93DF93CDB7DEB727970FB66C
:10171000F894DEBF0FBECDBF29833A834B835C8331
:101720006D837E838F83E981FA81208181E090E05F
:101730000F8002C0880F991F0A94E2F780958223D8
:10174000808327960FB6F894DEBF0FBECDBFDF9122
:10175000CF910895CF93DF93CDB7DEB727970FB61C
:10176000F894DEBF0FBECDBF29833A834B835C83E1
:101770006D837E838F83ED81FE81808190E00F8079
:1017800002C0959587950A94E2F7817027960FB667
:10179000F894DEBF0FBECDBFDF91CF910895CF93F8
:1017A000DF93CDB7DEB727970FB6F894DEBF0FBE35
:1017B000CDBF29833A834B835C836D837E838F8384
:1017C000EB81FC81208181E090E00F8002C0880FD6
:1017D000991F0A94E2F7282B208327960FB6F894D6
:1017E000DEBF0FBECDBFDF91CF910895CF93DF93C2
:1017F000CDB7DEB727970FB6F894DEBF0FBECDBFCB
:1018000029833A834B835C836D837E838F83EB8153
:10181000FC81208181E090E00F8002C0880F991F39
:101820000A94E2F780958223808327960FB6F89476
:10183000DEBF0FBECDBFDF91CF9108958091E8004C
:1018400080FFFCCF089581E88093D70080EA8093E1
:10185000D80086E189BD09B400FEFDCF80E9809300
:10186000D8001092E000109288018CE08093E20092
:101870007894089580918801089590918801992322
:1018800071F09FB7F89423E02093E900209186013E
:10189000222349F02091E80025FD03C09FBF8FEF70
:1018A0000895109286012091E4002C5F33E040916E
:1018B000E80045FD12C09FBF9091E400921304C060
:1018C00081E080938601EBCF90918801992339F3D1
:1018D0009FB7F8943093E900EACF8093F1008091AC
:1018E000E80085FD06C08AE38093E8001092870136
:1018F00003C082E0809387019FBF80E008951F931B
:10190000CF93DF93EC0110E0FE01E10FF11D808128
:10191000882339F00E943D0C87FD02C01F5FF4CF81
:101920008FEFDF91CF911F9108958FB7F894909129
:101930008701992379F093E09093E9009091E80072
:1019400095FF03C01092F100F9CF9AE39093E8005D
:10195000109287018FBF08951F920F920FB60F92BA
:1019600011248F939F938091E1001092E10083FFF7
:101970000FC01092E90091E09093EB001092EC0000
:1019800092E29093ED0098E09093F000109288011D
:1019900082FF1AC0809188018823B1F0809187016D
:1019A000882391F081508093870181110DC083E0DD
:1019B0008093E9008091E80085FF03C01092F10058
:1019C000F9CF8AE38093E8009F918F910F900FBE2B
:1019D0000F901F9018951F920F920FB60F9211241F
:1019E0000BB60F92EF92FF920F931F932F933F939B
:1019F0004F935F936F937F938F939F93AF93BF9317
:101A0000EF93FF93CF93DF931F92CDB7DEB7109282
:101A1000E9008091E80083FF02C19091F10080917C
:101A2000F1000091F1002091F10010E0122B3091B3
:101A3000F1002091F100E32EF12CF22A2091F10027
:101A40004091F10030E0342B42EF4093E8008630C3
:101A500009F044C067E088E990E0FC0145915491A9
:101A60004017510739F4FC013296459154914E15B7
:101A70005F0521F00796615081F7D1C0FC013496D3
:101A800045915491FC01369684912F3F310519F010
:101A900010F02FEF30E0281708F4822F3EEF9091DE
:101AA000E800292F2570D9F392FDBCC0982F813210
:101AB00008F090E2FA01292F222331F0649160931B
:101AC000F10021503196F8CF490F511D891B3093F9
:101AD000E8008111E4CF903211F3A4C0853049F4BD
:101AE0008EEF8093E8000E941E0C00680093E300D4
:101AF00099C0893039F591114CC0009388018EEF5F
:101B00008093E80041E08EE491E04093E9009C017D
:101B10002F5F3F4FFC0154915093EB00552359F038
:101B2000F90124912093EC009C012D5F3F4F3196E9
:101B300084918093ED004F5F453011F0C901E5CFEE
:101B40008EE147C0883051F4903809F068C00E9497
:101B50001E0C809188018093F10017C0811119C07B
:101B600099830E941E0C9981923851F4E092E90009
:101B70008091EB0085FB882780F91092E90001C075
:101B800080E08093F1001092F1008EEF8093E800E6
:101B900049C0482F4D7F413009F041C09230F1F4E7
:101BA000012BE9F52E2D2F779FEF920F9430B8F58A
:101BB0009EEF9093E8002093E900833081F189E162
:101BC0008093EB0081E090E0022E01C0880F0A9420
:101BD000EAF78093EA001092EA0024C08130F9F419
:101BE000913AE9F4EF28D9F43EEF8091E800982F7C
:101BF0009570D9F382FD16C0822F213208F080E261
:101C0000982F992321F01092F1009150FACF281BC0
:101C10003093E8002111E9CF803239F303C081E22B
:101C20008093EB000F90DF91CF91FF91EF91BF91E7
:101C3000AF919F918F917F916F915F914F913F9164
:101C40002F911F910F91FF90EF900F900BBE0F906F
:101C50000FBE0F901F90189527E030E070E0AB01A9
:101C6000022E02C0559547950A94E2F740FF02C044
:101C700041E301C040E3FC01E20FF31F4083215028
:101C8000310968F7FC0110860895FC0180E091910C
:101C9000992319F08F5F8F3FD1F70895CF93DF938A
:101CA000CDB7DEB7CA58D1090FB6F894DEBF0FBE64
:101CB000CDBF80E880936100109261000E94230CE8
:101CC0000E943A0C8823E1F320E030E040E050E04D
:101CD00060E070E080E090E00E947B012093890149
:101CE00030938A0140938B0150938C0160938D0156
:101CF00070938E0180938F01909390010E94DA037C
:101D0000CE0101960E940D05CE0101960E943D076D
:101D1000FBCF97FB072E16F4009407D077FD09D070
:101D20000E949D0E07FC05D03EF4909581959F4F33
:101D30000895709561957F4F0895AA1BBB1B51E1D3
:101D400007C0AA1FBB1FA617B70710F0A61BB70B2B
:101D5000881F991F5A95A9F780959095BC01CD01D0
:101D600008950F931F93CF93DF93CDB7DEB72E97D0
:101D70000FB6F894DEBF0FBECDBF0D891E8986E079
:101D80008C831A8309838FEF9FE79E838D83AE0137
:101D9000475E5F4F6F89788DCE0101960E94E00EFD
:101DA000EF81F885E00FF11F10822E960FB6F894A0
:101DB000DEBF0FBECDBFDF91CF911F910F91089570
:101DC0002F923F924F925F926F927F928F929F924B
:101DD000AF92BF92CF92DF92EF92FF920F931F9339
:101DE000CF93DF93CDB7DEB72C970FB6F894DEBF55
:101DF0000FBECDBF7C016B018A01FC0117821682E8
:101E0000838181FFBDC1CE0101964C01F701938111
:101E1000F60193FD859193FF81916F01882309F469
:101E2000ABC1853239F493FD859193FF81916F01A8
:101E3000853229F4B70190E00E94F110E7CF512CD0
:101E4000312C20E02032A0F48B3269F030F4803263
:101E500059F0833269F420612CC08D3239F080331F
:101E600039F4216026C02260246023C0286021C08C
:101E700027FD27C030ED380F3A3078F426FF06C032
:101E8000FAE05F9E300D1124532E13C08AE0389E75
:101E9000300D1124332E20620CC08E3221F426FD29
:101EA0006BC1206406C08C3611F4206802C08836ED
:101EB00041F4F60193FD859193FF81916F018111AA
:101EC000C1CF982F9F7D9554933028F40C5F1F4FFE
:101ED000FFE3F9830DC0833631F0833771F083352A
:101EE00009F05BC022C0F801808189830E5F1F4F1B
:101EF00044244394512C540115C03801F2E06F0E74
:101F0000711CF801A080B18026FF03C0652D70E030
:101F100002C06FEF7FEFC5012C870E94E6102C01F5
:101F200083012C852F77222E17C03801F2E06F0E27
:101F3000711CF801A080B18026FF03C0652D70E000
:101F400002C06FEF7FEFC5012C870E94DB102C01D0
:101F50002C852068222E830123FC1BC0832D90E05A
:101F600048165906B0F4B70180E290E00E94F110E3
:101F70003A94F4CFF50127FC859127FE81915F010A
:101F8000B70190E00E94F11031103A94F1E04F1A3D
:101F900051084114510471F7E5C0843611F08936B7
:101FA00039F5F80127FF07C0608171818281938133
:101FB0000C5F1F4F08C060817181882777FD809575
:101FC000982F0E5F1F4F2F76B22E97FF09C0909566
:101FD0008095709561957F4F8F4F9F4F2068B22EEF
:101FE0002AE030E0A4010E942311A82EA81844C0C2
:101FF000853729F42F7EB22E2AE030E025C0F22F5B
:10200000F97FBF2E8F36C1F018F4883579F0B4C04F
:10201000803719F0883721F0AFC02F2F2061B22E02
:10202000B4FE0DC08B2D8460B82E09C024FF0AC0F9
:102030009F2F9660B92E06C028E030E005C020E151
:1020400030E002C020E132E0F801B7FE07C0608155
:102050007181828193810C5F1F4F06C06081718105
:1020600080E090E00E5F1F4FA4010E942311A82E74
:10207000A818FB2DFF77BF2EB6FE0BC02B2D2E7F91
:10208000A51450F4B4FE0AC0B2FC08C02B2D2E7E5D
:1020900005C07A2C2B2D03C07A2C01C0752C24FF8F
:1020A0000DC0FE01EA0DF11D8081803311F4297EFF
:1020B00009C022FF06C07394739404C0822F8678EF
:1020C00009F0739423FD13C020FF06C05A2C73142B
:1020D00018F4530C5718732C731468F4B70180E28A
:1020E00090E02C870E94F11073942C85F5CF731427
:1020F00010F4371801C0312C24FF12C0B70180E35F
:1021000090E02C870E94F1102C8522FF17C021FF40
:1021100003C088E590E002C088E790E0B7010CC0FA
:10212000822F867859F021FD02C080E201C08BE247
:1021300027FD8DE2B70190E00E94F110A51438F45C
:10214000B70180E390E00E94F1105A94F7CFAA946F
:10215000F401EA0DF11D8081B70190E00E94F110B9
:10216000A110F5CF332009F451CEB70180E290E001
:102170000E94F1103A94F6CFF7018681978102C050
:102180008FEF9FEF2C960FB6F894DEBF0FBECDBF3A
:10219000DF91CF911F910F91FF90EF90DF90CF9043
:1021A000BF90AF909F908F907F906F905F904F9077
:1021B0003F902F900895FC010590615070400110F0
:1021C000D8F7809590958E0F9F1F0895FC01615060
:1021D000704001900110D8F7809590958E0F9F1F49
:1021E00008950F931F93CF93DF93182F092FEB01BF
:1021F0008B8181FD03C08FEF9FEF20C082FF10C055
:102200004E815F812C813D81421753077CF4E88128
:10221000F9819F012F5F3F4F39832883108306C0C8
:10222000E885F985812F0995892B29F72E813F8132
:102230002F5F3F4F3F832E83812F902FDF91CF91D0
:102240001F910F910895FA01AA27283051F12031EA
:1022500081F1E8946F936E7F6E5F7F4F8F4F9F4F3A
:10226000AF4FB1E03ED0B4E03CD0670F781F891F7C
:102270009A1FA11D680F791F8A1F911DA11D6A0F4A
:10228000711D811D911DA11D20D009F468943F91FD
:102290002AE0269F11243019305D3193DEF6CF01FC
:1022A0000895462F4770405D4193B3E00FD0C9F7C2
:1022B000F6CF462F4F70405D4A3318F0495D31FD2F
:1022C0004052419302D0A9F7EACFB4E0A695979582
:1022D000879577956795BA95C9F700976105710558
:1022E00008959B01AC010A2E0694579547953795A2
:1022F0002795BA95C9F7620F731F841F951FA01DFC
:062300000895F894FFCFE0
:102306004000FF0100010000FFFF0000010001FF87
:102316000000401454257568202575732025756DB9
:10232600730025336900466F6F64556E69742076B5
:10233600302E300A506C65617365207075736820A5
:102346007468650A656E636F64657220746F2073C6
:10235600746172742E0A3E4F6B00506C6561736532
:10236600207365742074686520647261696E0A64FE
:1023760075726174696F6E2E006D696E7574657322
:0623860000777466000000
:00000001FF
